:020000040800F2
:1000000010C20020A5300008390200083B02000899
:100010003F020008430200084702000800000000F9
:100020000000000000000000000000004B0200087B
:100030004D020008000000004F02000851020008B5
:10004000BF300008BF300008BF300008BF300008D4
:10005000BF300008BF300008BF300008BF300008C4
:10006000BF300008BF300008BF300008BF300008B4
:10007000BF300008BF300008BF300008BF300008A4
:10008000BF300008BF300008BF300008BF30000894
:10009000BF300008BF300008BF300008BF30000884
:1000A000BF300008BF300008BF300008BF30000874
:1000B000BF300008BF300008BF300008BF30000864
:1000C000BF300008BF300008BF300008BF30000854
:1000D000BF30000819300008BF300008BF300008EA
:1000E000BF300008BF300008BF300008BF30000834
:1000F000BF300008BF300008BF300008BF30000824
:10010000BF300008BF300008BF300008BF30000813
:10011000BF300008BF300008BF300008BF30000803
:10012000BF300008BF300008BF300008BF300008F3
:1001300000F002F800F04DF80AA090E8000C8244AC
:100140008344AAF10107DA4501D100F042F8AFF289
:10015000090EBAE80F0013F0010F18BFFB1A43F0A5
:1001600001031847A0660000C0660000103A24BFD3
:1001700078C878C1FAD8520724BF30C830C144BF0C
:1001800004680C607047000000230024002500264E
:10019000103A28BF78C1FBD8520728BF30C148BFEA
:1001A0000B607047662906F0CC80642904F0BC849B
:1001B000782904F0F584002070471FB505F020F879
:1001C00004000020002105F075FDE0601FBD10B5A2
:1001D00010BD05F02DF91146FFF7EFFF00F008F80C
:1001E00005F04BF903B4FFF7F2FF03BC02F0CEFEBB
:1001F00002F062FE4FF4E13002F0D6FE02F008FC9D
:1002000000F013FA00F0CCFB40F21F11092000F0BF
:100210005BFC0CE002F0B3FD0548006838B9054806
:1002200002F06EFD05214FF07E5002F08BFCF1E7ED
:10023000480000206C000020704700BFFEE700BFB0
:10024000FEE700BFFEE700BFFEE77047704770475C
:10025000704700000CB50020019000906C480068C9
:1002600040F480306A49086000BF6948006800F4C3
:10027000003000900198401C0190009818B9019836
:10028000B0F5A06FF1D16248006800F4003010B101
:100290000120009001E0002000900098012843D147
:1002A0005C48006840F010005A4908600846006841
:1002B00020F0030008600846006840F00200086073
:1002C00053484068524948600846406848600846BC
:1002D000406840F4806048600846406820F47C1024
:1002E00048600846406840F4E810486008460068E6
:1002F00040F08070086000BF4548006800F0007062
:100300000028F9D04248406820F003004049486086
:100310000846406840F00200486000BF3C48406822
:1003200000F00C000828F9D10CBD10B5FFF792FFC2
:1003300010BD10B53648006840F00100344908602F
:10034000084640683449084031494860084600681A
:10035000324908402E4908600846006820F4802091
:1003600008600846406820F4FE0048604FF41F0013
:100370008860FFF7DAFF4FF000602949086010BD80
:1003800010B5002100200022214B5B6803F00C0116
:1003900021B1042906D0082928D107E0214B224C9D
:1003A000236027E01F4B204C236023E0184B5B6841
:1003B00003F47010164B5B6803F48032022303EBE6
:1003C000904022B9194B4343174C23600DE0104B6A
:1003D0005B6803F4003323B1144B4343124C236096
:1003E00003E0104B4343104C236003E00D4B0E4CD5
:1003F000236000BF00BF064B5B68C3F303130C4CC4
:10040000E15C094B1B68CB40074C236010BD00002A
:1004100000100240002002400000FFF8FFFFF6FE3F
:1004200008ED00E000127A000000002000093D0005
:1004300004000020002021E0FC2100EB4002FA4BE8
:1004400003F81210002100EB400203EB420251704E
:1004500000EB400203EB4202917000EB400203EB21
:100460004202D17000EB400203EB42021171F02115
:1004700000EB400203EB42025171401CEB4909784A
:100480008842D9DB704710B5C0F34003E84C2370B5
:1004900023461B789B1CE74C2370C3071B0EE44CC0
:1004A000237023461B78603303EB01131344E14CA4
:1004B000637010BD0520E0490870682048707047DF
:1004C00010B51021DD4802F08AFF022002F031FD54
:1004D0001021DA4802F081FF10BD30B502460B460C
:1004E000102100200BE01D5C85EAE115ECB2D44D33
:1004F00035F8245085EA0125A9B2451CE8B290429E
:10050000F1DB4FF6FF7000EA410030BD2DE9FE43FC
:1005100081460E4600200090019002904FF00C089A
:100520008DF8000001208DF8010069460220FFF7D8
:10053000D4FF074638128DF80200F8B28DF8030098
:100540000424002006E0315C0DF80410611CCCB2DC
:10055000411CC8B20628F6DB31460620FFF7BDFF76
:10056000054628120DF80400E9B2601C0DF80010D1
:10057000FFF7A6FF1021B14802F031FF694640465F
:1005800002F0A2FA1021AD4802F027FFBDE8FE8379
:100590002DE9FE4381460C460020019002908046E2
:1005A0008DF8000002208DF801006946FFF795FFE5
:1005B000074638128DF80200F8B28DF80300FFF7F5
:1005C0007FFF10219D4802F00AFF082301AA0421A1
:1005D000684602F090FA1021984802F0FEFE0020D2
:1005E00004E001A9095C2154411CC8B20828F8DBC9
:1005F000E079A17940EA012621460620FFF76DFF48
:100600000546AE4201D04FF0FF384046BDE8FE83BC
:1006100010B51021894802F0E2FE012002F089FCA9
:100620001021864802F0D9FE10BD10B5FFF702FF79
:10063000002211460220FFF726FFFFF7E9FF7A4963
:100640007A480078FFF762FF7E4978480078FFF724
:100650009FFF002409E07B48025D21467AA004F058
:1006600057FA7BA004F054FA641C082CF3DB75499C
:100670006E480078FFF78CFF401C18B975A004F095
:1006800047FA02E07AA004F043FA80A004F040FAAE
:1006900010BD38B5674800788DF80000654840788F
:1006A0008DF8010063490220FFF717FF044620126E
:1006B0008DF80200E0B28DF80300FFF701FF102172
:1006C0005E4802F08CFE6946042002F0FDF910211C
:1006D0005A4802F082FE38BD38B5052056490870E8
:1006E00068204870084600788DF800000846407879
:1006F0008DF801000220FFF7F0FE044620128DF86D
:100700000200E0B28DF80300FFF7DAFE10214B483B
:1007100002F065FE6946042002F0D6F91021474830
:1007200002F05BFE38BDF8B504460E461746012CB4
:1007300006D104208DF8010000208DF8000019E09A
:10074000022C06D106208DF8010000208DF8000053
:1007500010E0032C06D108208DF8010000208DF850
:10076000000007E0042C05D10A208DF801000020CC
:100770008DF8000069460220FFF7AFFE05462812FB
:100780008DF80200E8B28DF80300FFF799FE102102
:100790002A4802F024FEF006030E3A460421684679
:1007A00002F0A9F91021254802F017FEF8BD2DE945
:1007B000F05F89464FF0000A002401252BE0002459
:1007C000334A49462846FFF7AEFF002012E0304981
:1007D0000A5D0B46611C595C02EB01218FB2691E58
:1007E00001EB410101442B4A22F81170A11CCCB24B
:1007F000411CC8B20328EADB2549601C085C095D7E
:1008000000EB01201FFA80F821490620FFF765FE62
:100810000646681CC5B2052DD1DBB04501D04FF0AE
:10082000010A002547E00000190000201800002000
:1008300027000020140000201600002000080140BE
:10084000486300081F00002025643A30782578208E
:100850000A0000004C5443363830345F4D4F445545
:100860004C415220494E4954204E47210A0D000068
:100870004C5443363830345F4D4F44554C41522030
:10088000494E4954204F4B210A0D00000D0A00002B
:1008900028000020CC000020C5F10B013C4A32F8B2
:1008A000110005F015FC83463A4905F04FFB3A4923
:1008B00041F825006D1C0C2DEEDB0AF0FF00BDE8B1
:1008C000F09F38B507208DF8000011208DF8010049
:1008D00069460220FFF701FE044620128DF802004F
:1008E000E0B28DF80300FFF7EBFD10212B4802F07A
:1008F00076FD00231A460421684602F0FCF8102118
:10090000264802F06AFD38BD38B507208DF8000092
:1009100013208DF8010069460220FFF7DEFD044632
:1009200020128DF80200E0B28DF8030010211B4860
:1009300002F055FD00231A460421684602F0DBF858
:100940001021164802F049FD38BD38B50446002094
:100950008DF8000010208DF8010069460220FFF795
:10096000BCFD054628128DF80200E8B28DF80300A0
:1009700010210A4802F033FD08232246042168466C
:1009800002F0B9F81021054802F027FD38BD00003B
:10099000CC00002000401C466C00002000080140F4
:1009A00008B501215C2002F027FF0121FE4802F07A
:1009B00038FD0221FD4802F010FD0421FB4802F041
:1009C0000CFD0821F94802F008FD4FF40041F748FA
:1009D00002F003FD0821F64802F0FFFC4021F44834
:1009E00002F0FBFC8021F24802F0F7FC4FF480712A
:1009F000EF4802F0F2FC4FF40071ED4802F0EDFC1C
:100A00004FF48061EA4802F0E8FC4FF40061E848E6
:100A100002F0E3FC4021E74802F0DFFC8021E548DA
:100A200002F0DBFC4FF48071E24802F0D6FC4FF498
:100A30000071E04802F0D1FC4FF40071DE4802F092
:100A4000CCFC4FF40061DC4802F0C7FC4FF40051CD
:100A5000D94802F0C2FC48F20E00ADF800001020A8
:100A60008DF8030003208DF802006946CF4802F09C
:100A700007FC40F6C870ADF8000010208DF80300A8
:100A800003208DF802006946C94802F0F9FB4FF4D3
:100A90007070ADF8000010208DF8030003208DF871
:100AA00002006946C34802F0EBFB4FF42850ADF852
:100AB000000010208DF8030003208DF80200694625
:100AC000BD4802F0DDFB08BD30B589B005460C46D7
:100AD00001210F2002F09DFE012140F65D0002F091
:100AE0008BFE0121B54802F09CFC0121B44802F0C4
:100AF00098FC0121B34802F094FC0121AA4802F0BD
:100B000090FCADF81850ADF814400020ADF81A0074
:100B1000ADF816008DF81C0005A9AB4802F0A4FF43
:100B2000ADF81850ADF814400020ADF81A00ADF83B
:100B3000160005A94FF0804002F096FF05A9A348D2
:100B400002F092FF05A9A24802F08EFF05A9A14874
:100B500002F08AFF7020ADF804000120ADF8060015
:100B60000020ADF80C0001A94FF0804002F0B9FF61
:100B70000821C80603F019FC01A94FF0804002F0DB
:100B8000F8FF0821C80603F019FC01A94FF08040C6
:100B900003F040F80821C80603F01DFC01A94FF03E
:100BA000804003F0A9F80821C80603F01DFC70205E
:100BB000ADF804000120ADF806000020ADF80C00EF
:100BC00001A9824802F08DFF0821804803F0EDFB67
:100BD00001A97E4802F0CDFF08217C4803F0EEFB1E
:100BE00001A97A4803F016F80821784803F0F3FBCE
:100BF00001A9764803F080F80821744803F0F4FB5B
:100C00007020ADF804000120ADF806000020ADF81A
:100C10000C0001A96E4802F064FF08216C4803F043
:100C2000C4FB01A96A4802F0A4FF0821684803F048
:100C3000C5FB01A9664802F0EDFF0821644803F0F6
:100C4000CAFB01A9624803F057F80821604803F085
:100C5000CBFB7020ADF804000120ADF806000020A9
:100C6000ADF80C0001A95B4802F083FF0821594848
:100C700003F0A4FB01A9574802F0CCFF0821554816
:100C800003F0A9FB01A9534803F036F808215148A5
:100C900003F0AAFB7020ADF804000120ADF80600B7
:100CA0000020ADF80C004FF48070ADF8100001A9E1
:100CB000454802F016FF0821434803F076FB01A9DE
:100CC000414802F056FF08213F4803F077FB01A995
:100CD0003D4802F09FFF08213B4803F07CFB802148
:100CE000C80503F0BDFC1021880603F0A7FC06210F
:100CF000354803F0ACFC1021334803F060FA0621BC
:100D0000324803F0A4FC1021304803F058FA0621C1
:100D10002F4803F09CFC10212D4803F050FA0621C7
:100D20002C4803F094FC00212A4803F048FA0021E3
:100D3000254803F09EFC00214FF0804003F099FC11
:100D40000021224803F095FC0021214803F091FC8A
:100D50000021204803F08DFC00211B4803F08DFC8E
:100D60000021194803F08BFC0021174803F089FC8F
:100D700000214FF0804003F080FC00214FF08040C4
:100D800003F07DFC00214FF0804003F07AFC00214D
:100D90004FF0804003F077FC00210C4803F06DFC1D
:100DA00000210A4818E0000000023000000801405D
:100DB000000C01400010014000180140C000160066
:100DC00000031800000C1A00002C01400004004031
:100DD00000080040000C004003F051FC0021FE48D8
:100DE00003F04FFC0021FC4803F04DFC0021FB48C0
:100DF00003F043FC0021F94803F041FC0021F748CF
:100E000003F03FFC0021F54803F03DFC0021F448CD
:100E100003F035FC0021F24803F033FC0021F048D8
:100E200003F031FC0121EF4803F09BF90121880711
:100E300003F08BF940F6C870ADF8200018208DF84B
:100E4000230003208DF8220008A9E74802F018FAD1
:100E50004FF47070ADF8200018208DF823000320A7
:100E60008DF8220008A9E14802F00AFA48F20E00C3
:100E7000ADF8200018208DF8230003208DF8220003
:100E800008A9DB4802F0FCF94FF42850ADF8200027
:100E900018208DF8230003208DF8220008A9D548DA
:100EA00002F0EEF9282002F020F800214FF08040F7
:100EB00003F04BF90021CB4803F047F90021C64865
:100EC00003F043F90021C54803F03FF90021C4486D
:100ED00003F03BF94FF47A7002F02BF809B030BD03
:100EE00070B588B004460D4601210D2002F091FC3A
:100EF00001210D2002F080FC0121BF4802F091FA8F
:100F00000121BE4802F08DFAADF81440ADF8105042
:100F10000020ADF81600ADF8120004A94FF0804093
:100F200002F0A2FD04A9AD4802F09EFD04A9AC4860
:100F300002F09AFD7020ADF800000120ADF802002B
:100F40000020ADF8080069464FF0804002F011FE25
:100F50000821C80603F032FA69464FF0804002F0DB
:100F600059FE0821C80603F036FA7020ADF80000DB
:100F70000120ADF802000020ADF80800694697484E
:100F800002F048FE0821954803F025FA6020ADF8EC
:100F900000000120ADF802000020ADF8080069460D
:100FA0008E4802F0A9FE08218C4803F01DFA60204B
:100FB000ADF800000120ADF802000020ADF80800F7
:100FC0006946874802F098FE0821854803F00CFA2C
:100FD0008021C80503F044FB1021880603F02EFB96
:100FE00006217E4803F033FB10217C4803F0E7F82C
:100FF00006217B4803F02BFB0021794803F0DFF842
:1010000000214FF0804003F034FB0021734803F0CF
:1010100030FB0021724803F02CFB0521880703F008
:101020002EFB0521880703F02CFB05216B4803F0FC
:1010300028FB0521694803F026FB0521684803F0D9
:1010400022FB0121880703F080F84FF4E160ADF83E
:101050001C0018208DF81F0003208DF81E0007A922
:10106000614802F00DF90820ADF81C0018208DF839
:101070001F0003208DF81E0007A95D4802F000F94B
:10108000002604E04FF47A7001F053FF761C052E21
:10109000F8DB00214FF0804003F0F1FA00214FF01F
:1010A000804003F0EEFA00214C4803F0EAFA0A21EE
:1010B0004A4803F0E8FA0A21494803F0E4FA4FF4F9
:1010C0007A7001F036FF00214FF0804003F03DF8C8
:1010D0000021424803F039F80021414803F035F877
:1010E000002604E04FF47A7001F023FF761C092EED
:1010F000F8DB08B070BD70B588B004460D4601211C
:101100000D2002F086FB01210D2002F075FB01216C
:10111000394802F086F90121384802F082F9ADF829
:101120001440ADF810500020ADF81600ADF81200D4
:1011300004A94FF0804002F097FC04A9274802F070
:1011400093FC04A9264802F08FFC7020ADF8000043
:101150000120ADF802000020ADF8080069464FF00C
:10116000804002F057FD0821C80603F034F96946B3
:101170004FF0804002F0C0FD0821C80603F034F9AA
:101180007020ADF800000120ADF802000020ADF89D
:1011900008006946114802F03DFD08210F4803F0A0
:1011A0001AF96020ADF800000120ADF8020000201F
:1011B000ADF8080069460A4802F0DBFC082108483F
:1011C00003F0FCF86946064802F024FD08210448B3
:1011D00003F001F9802113E0000400400008004002
:1011E000000C0040002C0140000C014000100140A8
:1011F0000008014000180140000318000002300000
:10120000C80503F02DFA1021880603F017FA06210D
:10121000FE4803F01CFA1021FC4802F0D0FF062122
:10122000FB4803F014FA0021F94802F0C8FF00213E
:101230004FF0804003F01DFA0021F44803F019FA42
:101240000021F34803F015FA0521880703F019FA85
:101250000521880703F017FA0521EC4803F011FA7D
:101260000521EB4803F00BFA0521E94803F009FAE0
:101270000121880702F069FF0620ADF81C00182044
:101280008DF81F0003208DF81E0007A9E14801F02A
:10129000F7FF4FF45060ADF81C0018208DF81F00C8
:1012A00003208DF81E0007A9DB4801F0E9FF0026A6
:1012B00004E04FF47A7001F03CFE761C052EF8DB5A
:1012C00000214FF0804003F0DCF900214FF0804016
:1012D00003F0D9F90021CD4803F0D3F90A21CC4815
:1012E00003F0CDF90A21CA4803F0CBF94FF47A7024
:1012F00001F01FFE00214FF0804002F026FF002188
:10130000C24802F022FF0021C14802F01EFF002661
:1013100004E04FF47A7001F00CFE761C092EF8DB25
:1013200008B070BD70B588B004460D4601210F208D
:1013300002F06FFA01211D2002F05EFA0121B74888
:1013400002F06FF80121B64802F06BF80121B548B0
:1013500002F067F8ADF81440ADF810500020ADF879
:101360001600ADF8120004A94FF0804002F07CFB9B
:1013700004A9AD4802F078FB04A9A44802F074FB6C
:1013800004A9A34802F070FB7020ADF80000012012
:10139000ADF802000020ADF8080069464FF080402B
:1013A00002F0AAFC0821C80603F01EF87020ADF870
:1013B00000000120ADF802000020ADF808006946E9
:1013C000994802F08EFB0821974802F0EEFF70204A
:1013D000ADF800000120ADF802000020ADF80800D3
:1013E00069468A4802F016FC0821884802F0F3FF9B
:1013F0006020ADF800000120ADF802000020ADF83B
:1014000008006946814802F077FC08217F4802F015
:10141000EBFF6020ADF800000120ADF802000020D5
:10142000ADF8080069467A4802F066FC0821784861
:1014300002F0DAFF8021C80503F012F910218806B6
:1014400003F0FCF80621784803F001F910217648F2
:1014500002F0B5FE06216D4803F0F9F810216B4843
:1014600002F0ADFE06216A4803F0F1F80021684859
:1014700002F0A5FE00214FF0804003F0FAF80021B1
:10148000694803F0F6F80021604803F0F2F8002103
:101490005F4803F0EEF80521880703F0F4F8052112
:1014A000614803F0EAF80521584803F0EAF80521FD
:1014B000564803F0E8F80521554803F0E4F8012107
:1014C000880702F042FE4FF43060ADF81C0018208F
:1014D0008DF81F0003208DF81E0007A94E4801F06B
:1014E000CFFE0820ADF81C0018208DF81F00032047
:1014F0008DF81E0007A9474801F0C2FE4020ADF854
:101500001C0018208DF81F0003208DF81E0007A96D
:10151000464801F0B5FE002604E04FF47A7001F071
:1015200008FD761C052EF8DB00214FF0804003F00B
:10153000AAF800213C4803F0A0F80021334803F04A
:10154000A0F80A21314803F09EF80A21304803F040
:101550009AF84FF47A7001F0ECFC00214FF08040D3
:1015600002F0F3FD0021304802F0EFFD0021274892
:1015700002F0EBFD0021264802F0E7FD002604E022
:101580004FF47A7001F0D5FC761C092EF8DB08B018
:1015900070BD70B588B004460D4601210E2002F0E2
:1015A00038F901211D2002F027F901211C4801F022
:1015B00038FF01211B4801F034FFADF81440ADF8AD
:1015C00010500020ADF81600ADF8120004A916481E
:1015D00002F04AFA04A90D4802F046FA04A90C48A0
:1015E00002F042FA7020ADF800000120ADF80200D0
:1015F0000020ADF8080069460B4802F072FA082195
:10160000094802F0D2FE6946074811E00008004090
:10161000000C004000080140000C014000031800CD
:10162000000C1A00000230000004004000100140CD
:1016300002F09FFA0821FE4802F0C0FE7020ADF8CB
:1016400000000120ADF802000020ADF80800694656
:10165000F84802F0DFFA0821F64802F0BCFE6020EC
:10166000ADF800000120ADF802000020ADF8080040
:101670006946F14802F07DFA0821EF4802F09EFE2B
:101680006946ED4802F0C6FA0821EB4802F0A3FED5
:101690008021E74802F0E4FF1021E54802F0CEFF88
:1016A0000621E44802F0D3FF2021E24802F087FD42
:1016B0000621E14802F0CBFF1021DF4802F07FFD58
:1016C0000021DB4802F0D5FF0021DA4802F0D1FF0B
:1016D0000021D94802F0CDFF0521D54802F0CDFF09
:1016E0000521D34802F0CBFF0521D24802F0C9FF03
:1016F0000521D14802F0C3FF0521CF4802F0C1FF08
:101700000121CB4802F021FD0620ADF81C00182075
:101710008DF81F0003208DF81E0007A9C74801F0AF
:10172000AFFD4FF48070ADF81C0018208DF81F003D
:1017300003208DF81E0007A9C14801F0A1FDC020BB
:10174000ADF81C0018208DF81F0003208DF81E0036
:1017500007A9BC4801F094FD002604E04FF47A701C
:1017600001F0E7FB761C052EF8DB0021B04802F003
:1017700084FF0021AE4802F082FF0021AD4802F054
:1017800080FF0A21AC4802F07AFF0A21AA4802F041
:1017900078FF4FF47A7001F0CCFB0021A44802F0EE
:1017A000D4FC0021A34802F0D0FC0021A24802F0A2
:1017B000CCFC002604E04FF47A7001F0BAFB761CF2
:1017C000092EF8DB08B070BD70B588B004460D4630
:1017D00001210E2002F01DF801211D2002F00CF85D
:1017E0000121994801F01DFE0121984801F019FEE0
:1017F000ADF81440ADF810500020ADF81600ADF86B
:10180000120004A98A4802F02FF904A9894802F0BD
:101810002BF904A9884802F027F97020ADF80000E0
:101820000120ADF802000020ADF8080069468048AC
:1018300002F09FF908217E4802F0C0FD69467C480D
:1018400002F0E8F908217A4802F0C5FD7020ADF8F1
:1018500000000120ADF802000020ADF80800694644
:10186000744802F0D7F90821724802F0B4FD6020F4
:10187000ADF800000120ADF802000020ADF808002E
:1018800069466C4802F038FA08216A4802F0ACFD5B
:101890006020ADF800000120ADF802000020ADF896
:1018A00008006946644802F027FA0821624802F0FD
:1018B0009BFD80215E4802F0D3FE10215C4802F0BF
:1018C000BDFE06215B4802F0C2FE2021594802F00D
:1018D00076FC0621584802F0BAFE1021564802F064
:1018E0006EFC0021524802F0C4FE0021514802F073
:1018F000C0FE0021504802F0BCFE05214C4802F019
:10190000BEFE05214A4802F0BCFE0521494802F00E
:10191000B8FE0521474802F0B6FE0521464802F010
:10192000B2FE0121424802F010FC0820ADF81C0074
:1019300018208DF81F0003208DF81E0007A93F48CE
:1019400001F09EFC4FF44070ADF81C0018208DF89B
:101950001F0003208DF81E0007A9394801F090FCF4
:101960004FF4C070ADF81C0018208DF81F00032044
:101970008DF81E0007A9334801F082FC002604E020
:101980004FF47A7001F0D5FA761C052EF8DB0021B1
:10199000274802F074FE0021254802F072FE002163
:1019A000244802F06EFE0A21224802F06CFE0A2151
:1019B000214802F068FE4FF47A7001F0BAFA002173
:1019C0001B4802F0C2FB00211A4802F0BEFB0021B6
:1019D000194802F0BAFB002604E04FF47A7001F0D7
:1019E000A8FA761C092EF8DB08B070BD70B588B077
:1019F00004460D4601210E2001F00BFF01211D20A0
:101A000001F0FAFE0121104801F00BFD01210F4801
:101A100001F007FDADF81440ADF810500020ADF80E
:101A20001600ADF8120004A9014802F01DF80FE0FD
:101A30000004004000080040000C00400008014085
:101A4000000C014000100140000C1A0000023000A0
:101A500004A9FC4802F008F804A9FB4802F004F8C5
:101A60007020ADF800000120ADF802000020ADF8B4
:101A700008006946F54802F0CDF80821F34802F065
:101A8000AAFC6946F14802F037F90821EF4802F054
:101A9000ABFC7020ADF800000120ADF80200002082
:101AA000ADF808006946E74802F0B4F80821E548B7
:101AB00002F091FC6020ADF800000120ADF80200BA
:101AC0000020ADF808006946DF4802F052F808210E
:101AD000DD4802F073FC6946DB4802F09BF8082100
:101AE000D94802F078FC8021D84802F0B9FD1021D5
:101AF000D64802F0A3FD0621D24802F0A8FD20211D
:101B0000D04802F05CFB0621CF4802F0A0FD102176
:101B1000CD4802F054FB0021CC4802F0AAFD002180
:101B2000C84802F0A6FD0021C74802F0A2FD052129
:101B3000C64802F0A6FD0521C44802F0A4FD052117
:101B4000C04802F09EFD0521BF4802F098FD052126
:101B5000BD4802F096FD0121BC4802F0F6FA0620CD
:101B6000ADF81C0018208DF81F0003208DF81E0012
:101B700007A9B74801F084FB4FF48070ADF81C0052
:101B800018208DF81F0003208DF81E0007A9B1480A
:101B900001F076FB4FF44070ADF81C0018208DF872
:101BA0001F0003208DF81E0007A9AB4801F068FB59
:101BB000002604E04FF47A7001F0BBF9761C052E84
:101BC000F8DB0021A14802F05CFD00219F4802F0F3
:101BD0005AFD00219B4802F054FD0A219A4802F068
:101BE0004EFD0A21984802F04CFD4FF47A7001F046
:101BF000A0F90021954802F0A8FA0021914802F0CE
:101C0000A4FA0021904802F0A0FA002604E04FF464
:101C10007A7001F08EF9761C092EF8DB08B070BDE1
:101C200070B588B004460D4601210E2001F0F1FD8B
:101C300001211D2001F0E0FD0121884801F0F1FBA8
:101C40000121874801F0EDFBADF81440ADF81050CC
:101C50000020ADF81600ADF8120004A97B4801F091
:101C600003FF04A9774801F0FFFE04A9764801F0BC
:101C7000FBFE7020ADF800000120ADF8020000204E
:101C8000ADF808006946714802F036F808216F483F
:101C900002F0AAFB7020ADF800000120ADF80200B0
:101CA0000020ADF808006946664801F01AFF0821D7
:101CB000644802F07AFB7020ADF800000120ADF816
:101CC00002000020ADF8080069465E4801F0A2FF5E
:101CD00008215C4802F07FFB6020ADF80000012085
:101CE000ADF802000020ADF808006946554802F042
:101CF00003F80821534802F077FB6020ADF800009C
:101D00000120ADF802000020ADF8080069464E48F9
:101D100001F0F2FF08214C4802F066FB80214B489D
:101D200002F09EFC1021494802F088FC062145483B
:101D300002F08DFC2021434802F041FA062142487E
:101D400002F085FC1021404802F039FA00213F489A
:101D500002F08FFC00213B4802F08BFC00213A4846
:101D600002F087FC0521394802F08DFC0521354839
:101D700002F083FC0521334802F083FC0521314841
:101D800002F081FC0521304802F07DFC01212F4842
:101D900002F0DBF90820ADF81C0018208DF81F00B8
:101DA00003208DF81E0007A9294801F069FA4FF4B5
:101DB0005070ADF81C0018208DF81F0003208DF81E
:101DC0001E0007A9234801F05BFA4FF40070ADF83C
:101DD0001C0018208DF81F0003208DF81E0007A995
:101DE0001D4801F04DFA002604E04FF47A7001F02E
:101DF000A0F8761C052EF8DB0021144802F043FC05
:101E00000021104802F039FC00210E4802F039FC94
:101E10000A210C4802F037FC0A210B4802F033FC7F
:101E20004FF47A7001F085F80021084802F08DF92E
:101E30000021044802F089F90021034802F085F9E5
:101E4000002614E000080040000C004000040040A0
:101E500000080140000C014000100140000C1A0075
:101E6000000230004FF47A7001F063F8761C092EFE
:101E7000F8DB08B070BD70B588B004460D4601218E
:101E80000C2001F0C6FC01210D2001F0B5FC012160
:101E9000FD4801F0C6FAADF81440ADF8105000202E
:101EA000ADF81600ADF8120004A9F84801F0DCFD09
:101EB00004A9F74801F0D8FD7020ADF8000001201A
:101EC000ADF802000020ADF808006946EF4801F0C7
:101ED00008FE0821ED4802F068FA6946EB4801F077
:101EE00048FE0821E94802F069FA7020ADF80000C8
:101EF0000120ADF802000020ADF808006946E34873
:101F000001F088FE0821E14802F065FA6020ADF892
:101F100000000120ADF802000020ADF8080069467D
:101F2000DB4801F026FE0821D94802F047FA69464D
:101F3000D74801F06FFE0821D54802F04CFA802105
:101F4000D24802F08DFB1021D04802F077FB062129
:101F5000CF4802F07CFB2021CD4802F030F900216F
:101F6000CA4802F086FB0021C94802F082FB052125
:101F7000C64802F082FB0521C44802F080FB05211F
:101F8000C24802F07EFB0521C14802F078FB052122
:101F9000BF4802F076FB0121BC4802F0D6F80620CB
:101FA000ADF81C0018208DF81F0003208DF81E00CE
:101FB00007A9B84801F064F94FF4E070ADF81C00CF
:101FC00018208DF81F0003208DF81E0007A9B248C5
:101FD00001F056F9002604E04FF47A7000F0A9FFF2
:101FE000761C052EF8DB0021A84802F046FB0021F4
:101FF000A64802F044FB0021A44802F042FB0A215B
:10200000A34802F03CFB0A21A14802F03AFB4FF43E
:102010007A7000F08EFF00219C4802F096F80021B3
:102020009B4802F092F8002604E04FF47A7000F02A
:1020300080FF761C092EF8DB08B070BD70B588B043
:1020400004460D4601210C2001F0E3FB012140F67E
:102050004D0001F0D1FB0121904801F0E2F901218E
:10206000894801F0DEF9ADF81440ADF810500020B9
:10207000ADF81600ADF812008DF8180004A98848D4
:1020800001F0F2FCADF81440ADF810500020ADF8AE
:102090001600ADF8120004A97C4801F0E5FC04A983
:1020A0007B4801F0E1FC7020ADF800000120ADF8A4
:1020B00002000020ADF808006946744801F059FD9F
:1020C0000821724802F07AF97020ADF80000012072
:1020D000ADF802000020ADF808004FF48070ADF8B4
:1020E0000C0069466E4801F0FCFC08216C4802F0C7
:1020F0005CF97020ADF800000120ADF8020000206E
:10210000ADF808006946614801F084FD08215F4888
:1021100002F061F96020ADF800000120ADF8020086
:102120000020ADF808006946584801F0E5FD082197
:10213000564802F059F96020ADF800000120ADF8D2
:1021400002000020ADF808006946514801F0D4FDB6
:1021500008214F4802F048F980214C4802F080FAEB
:1021600010214A4802F06AFA06214D4802F06FFA3F
:1021700030214B4802F023F80621454802F067FA67
:102180002021434802F01BF80021454802F071FA73
:1021900000213E4802F06DFA00213D4802F069FA44
:1021A00005213A4802F06BFA05213D4802F065FA34
:1021B0000521364802F065FA0521344802F063FA39
:1021C0000521334802F05FFA0121354801F0C9FFCB
:1021D00001212E4801F0B9FF0820ADF81C0018209D
:1021E0008DF81F0003208DF81E0007A9294801F073
:1021F00047F84FF46070ADF81C0018208DF81F00F0
:1022000003208DF81E0007A9234801F039F84FF488
:102210000070ADF81C0018208DF81F0003208DF809
:102220001E0007A91F4801F02BF8002604E04FF418
:102230007A7000F07EFE761C052EF8DB0021134834
:1022400002F01DFA0021164802F017FA00210F488B
:1022500002F017FA0A210D4802F015FA0A210C487B
:1022600002F011FA4FF47A7000F063FE00210C487E
:1022700001F06BFF0021054801F067FF00210448D1
:1022800001F063FF002614E0000230000008004067
:10229000000C004000080140000C0140C000160086
:1022A000002C0140001801404FF47A7000F041FE0C
:1022B000761C092EF8DB08B070BD70B588B00446F6
:1022C0000D4601210C2001F0A4FA012140F64D0039
:1022D00001F092FA0121FE4801F0A3F80121FD4826
:1022E00001F09FF8ADF81440ADF810500020ADF8A3
:1022F0001600ADF812008DF8180004A9F64801F098
:10230000B3FBADF81440ADF810500020ADF8160046
:10231000ADF8120004A9F14801F0A6FB04A9F048A9
:1023200001F0A2FB7020ADF800000120ADF8020022
:102330000020ADF808004FF48070ADF80C0069463D
:10234000E54801F0CEFB0821E34802F02EF869468B
:10235000E14801F00EFC0821DF4802F02FF8702060
:10236000ADF800000120ADF802000020ADF8080033
:102370006946DA4801F04EFC0821D84802F02BF8F3
:102380006020ADF800000120ADF802000020ADF89B
:1023900008006946D24801F0ECFB0821D04802F061
:1023A0000DF86946CE4801F035FC0821CC4802F012
:1023B00012F88021C94802F053F91021C74802F0F1
:1023C0003DF90621C44802F042F93021C24801F02B
:1023D000F6FE0621C24802F03AF92021C04801F079
:1023E000EEFE0021BC4802F044F90021BB4802F097
:1023F00040F90021BA4802F03CF90521B64802F044
:102400003CF90521B44802F03AF90521B34802F03D
:1024100038F90521B24802F032F90521B04802F03E
:1024200030F90121AC4801F09CFE0121AB4801F0DC
:102430008CFE0620ADF81C0018208DF81F0003202C
:102440008DF81E0007A9A74800F01AFF4FF480700E
:10245000ADF81C0018208DF81F0003208DF81E0019
:1024600007A9A14800F00CFF4FF42060ADF81C0054
:1024700018208DF81F0003208DF81E0007A99B4827
:1024800000F0FEFE002604E04FF47A7000F051FDEB
:10249000761C052EF8DB00218F4802F0EEF80021B3
:1024A0008D4802F0ECF800218C4802F0EAF80A218D
:1024B0008B4802F0E4F80A21894802F0E2F84FF470
:1024C0007A7000F036FD0021834801F03EFE0021C5
:1024D000824801F03AFE0021814801F036FE0026D4
:1024E00004E04FF47A7000F024FD761C092EF8DB2E
:1024F00008B070BD70B588B004460D4601210C20AF
:1025000001F087F9012140F64D0001F075F9012134
:102510006F4800F086FF01216E4800F082FFADF8A1
:102520001440ADF810500020ADF81600ADF81200C0
:102530008DF8180004A9684801F096FAADF8144027
:10254000ADF810500020ADF81600ADF8120004A947
:10255000624801F089FA04A9614801F085FA702007
:10256000ADF800000120ADF802000020ADF8080031
:102570004FF48070ADF80C006946574801F0F9FA45
:102580000821554801F01AFF6946534801F042FB03
:102590000821514801F01FFF7020ADF80000012014
:1025A000ADF802000020ADF8080069464B4801F084
:1025B00031FB0821494801F00EFF6020ADF8000012
:1025C0000120ADF802000020ADF80800694643483C
:1025D00001F092FB0821414801F006FF6020ADF8B0
:1025E00000000120ADF802000020ADF808006946A7
:1025F0003B4801F081FB0821394801F0F5FE8021BC
:10260000364802F02DF81021344802F017F8062160
:10261000314802F01CF830212F4801F0D0FD06218E
:102620002F4802F014F820212D4801F0C8FD0021A8
:10263000294802F01EF80021284802F01AF800216B
:10264000274802F016F80521234802F018F8052162
:10265000214802F016F80521204802F012F8052161
:102660001E4802F010F805211D4802F00CF8012167
:10267000194801F076FD0121184801F066FD082097
:10268000ADF81C0018208DF81F0003208DF81E00E7
:1026900007A9144800F0F4FD4FF44070ADF81C0099
:1026A00018208DF81F0003208DF81E0007A90E4882
:1026B00000F0E6FD4FF42050ADF81C0018208DF816
:1026C0001F0003208DF81E0007A9084810E0000035
:1026D000C000160000023000002C0140000800403D
:1026E000000C004000080140000C014000180140AF
:1026F00000F0C6FD002604E04FF47A7000F019FCEB
:10270000761C052EF8DB0021B84801F0B8FF002147
:10271000B64801F0B6FF0021B54801F0B2FF0A212A
:10272000B34801F0B0FF0A21B24801F0ACFF4FF40A
:102730007A7000F0FEFB0021AC4801F006FD00219C
:10274000AB4801F002FD0021AA4801F0FEFC002682
:1027500004E04FF47A7000F0ECFB761C092EF8DBF5
:1027600008B070BD70B588B004460D4601210D203B
:1027700001F04FF8012140F64D0001F03DF8012134
:102780009D4800F04EFE01219C4800F04AFE0121C8
:102790009B4800F046FEADF81440ADF81050002004
:1027A000ADF81600ADF812008DF8180004A98F4896
:1027B00001F05AF9ADF81440ADF810500020ADF812
:1027C0001600ADF8120004A94FF0804001F04CF95A
:1027D00004A9874801F048F904A9864801F044F9A2
:1027E0007020ADF800000120ADF802000020ADF827
:1027F00008004FF48070ADF80C0069467B4801F08A
:1028000009FA0821794801F0E6FD7020ADF80000D2
:102810000120ADF802000020ADF8080069464FF035
:10282000804001F05EF90821C80601F0BEFD70206D
:10283000ADF800000120ADF802000020ADF808005E
:1028400069466B4801F0E6F90821694801F0C3FDCB
:102850006020ADF800000120ADF802000020ADF8C6
:1028600008006946634801F084F90821614801F0D5
:10287000A5FD69465F4801F0CDF908215D4801F0EA
:10288000AAFD8021C80501F0EBFE1021880601F0A9
:10289000D5FE0621564801F0DAFE1021544801F019
:1028A0008EFC0621534801F0D2FE0021514801F070
:1028B00086FC06214D4801F0CAFE10214B4801F06C
:1028C0007EFC0021494801F0D4FE00214FF08040F9
:1028D00001F0CFFE0021464801F0CBFE0021454823
:1028E00001F0C7FE0521414801F0CBFE0521880714
:1028F00001F0C3FE05213E4801F0C3FE05213D481D
:1029000001F0BDFE05213B4801F0BBFE0121374827
:1029100001F027FC0121880701F017FC48F20600AE
:10292000ADF81C0018208DF81F0003208DF81E0044
:1029300007A9344800F0A4FC4FF48070ADF81C00E7
:1029400018208DF81F0003208DF81E0007A92E48BF
:1029500000F096FC4FF40050ADF81C0018208DF8E4
:102960001F0003208DF81E0007A9284800F088FCEE
:10297000002604E04FF47A7000F0DBFA761C052E96
:10298000F8DB0021194801F07CFE00214FF0804067
:1029900001F073FE0021164801F073FE0A2115486C
:1029A00001F06DFE0A21134801F06BFE4FF47A70BE
:1029B00000F0BFFA00210D4801F0C7FB00214FF0E5
:1029C000804001F0C2FB0021094801F0BEFB00215C
:1029D000084801F0BAFB002604E04FF47A7000F0DA
:1029E000A8FA761C092EF8DB08B070BD002C014057
:1029F00000080040000C0040C00016000003180052
:102A00000002300000080140000C014000180140A5
:102A100008B50121042000F0EFFEB020ADF8000061
:102A200010208DF8030001208DF80200694644480B
:102A300000F026FCE021424800F0CFFC4020ADF839
:102A4000000001208DF8020004208DF80300694683
:102A50003B4800F015FC1021394800F0BEFC08BDD1
:102A600070B5044600262BE000222021344800F0F7
:102A7000B8FC04F0800028B101228021304800F029
:102A8000B0FC04E0002280212D4800F0AAFC600682
:102A9000040E322000F029FA01222021284800F0FB
:102AA000A0FC6806050E4021254800F07CFC08B11A
:102AB000681CC5B2322000F018FA00BF701CC6B204
:102AC000082ED1DB284670BD70B505460E460122A2
:102AD00010211B4800F085FC00221021184800F04E
:102AE00080FC002404E0305DFFF7BAFF601CC4B234
:102AF000AC42F8DB70BD2DE9F04105460E461746A5
:102B00009846012210210E4800F06BFC0022102193
:102B10000B4800F066FC002404E0285DFFF7A0FFEE
:102B2000601CC4B2B442F8DB002405E0FF20FFF7CC
:102B300097FF3855601CC4B24445F7DBBDE8F0810F
:102B4000000801402DE9F04106460C46304603F0EE
:102B500063F90746C04AC14B03F0CEF802D2FDF735
:102B60001FFFCBE0012C0ED100250AE0FDF718FF76
:102B700040F21F110920FEF7B3F90020B8490860A0
:102B80006D1C012DF2DB022C0ED100250AE0FDF7B1
:102B900007FF40F21F110920FEF7ADFA0020B049EF
:102BA00008606D1C012DF2DB032C0ED100250AE01C
:102BB000FDF7F6FE40F21F110920FEF7B3FB0020DF
:102BC000A74908606D1C012DF2DB042C0ED10025F5
:102BD0000AE0FDF7E5FE40F21F110920FEF7D9FCDF
:102BE00000209F4908606D1C012DF2DB052C0ED1E1
:102BF00000250AE0FDF7D4FE40F21F110920FEF780
:102C0000E3FD0020964908606D1C012DF2DB062CC7
:102C10000ED100250AE0FDF7C3FE40F21F11092086
:102C2000FEF7E4FE00208E4908606D1C012DF2DBEA
:102C3000072C0ED100250AE0FDF7B2FE40F21F116D
:102C40000920FEF7EDFF0020854908606D1C012D6D
:102C5000F2DB082C0ED100250AE0FDF7A1FE40F2C0
:102C60001F110920FFF707F900207D4908606D1C3E
:102C7000012DF2DB092C0ED100250AE0FDF790FEB4
:102C800040F21F110920FFF7D9F9002074490860AC
:102C90006D1C012DF2DB0A2C0ED100250AE0FDF798
:102CA0007FFE40F21F110920FFF707FB00206C494F
:102CB00008606D1C012DF2DB0B2C0ED100250AE003
:102CC000FDF76EFE40F21F110920FFF713FC0020F4
:102CD000634908606D1C012DF2DB0C2C0ED1002520
:102CE0000AE0FDF75DFE40F21F110920FFF73AFDF3
:102CF00000205B4908606D1C012DF2DBBDE8F0810E
:102D000070B50546002437E055F824004FF08141A6
:102D100003F071FA0BD20020524908605249086052
:102D200052490860524908605249086023E055F84A
:102D300024004E49096803F05EFA06D255F82400D3
:102D40004A490860601C4749086055F82400484912
:102D5000096803F0D1F906D255F824004449086007
:102D6000601C41490860424801684048006803F01F
:102D700073FA40490860641C0C2CC5DB70BD2DE95A
:102D8000F0410025FDF744FCFDF783FC1E2000F018
:102D9000D0F801210020FDF70AFD054600240BE0D4
:102DA000354951F8240003F037F8064632460B4601
:102DB00032A001F0ADFE641C0C2CF1DB294631A0E1
:102DC00001F0A6FE3248016832A001F0A1FE2548BC
:102DD000016833A001F09CFE2648006803F01CF84F
:102DE000064632460B4630A001F092FE31A001F0BB
:102DF0008FFE002D2DD126480068012829D10024FE
:102E000004E04FF47A7000F094F8641C052CF8DBB1
:102E1000FDF7FEFBFDF73DFC1E2000F08AF80121C6
:102E20000020FDF7C4FC00240BE0134951F82400F6
:102E300002F0F2FF064632460B4610A001F068FE93
:102E4000641C0C2CF1DB1BA001F062FE0020104979
:102E50000860BDE8F08100007B14AE47E17A743F62
:102E60003000002034000020380000203C0000200A
:102E700040000020440000206C000020252E336616
:102E80002C0000007065633D25640A0D0000000001
:102E900048000020464C41473D25640A0D000000D3
:102EA0006D61783D25642C0056646966663D252E6B
:102EB00033662C000D0A000010B56FF0040000F01E
:102EC00060F92E4800682E49B0FBF1F02D490870DA
:102ED0000846007800EB4001C1EBC0104FF6FF71CF
:102EE00001EAC0002849088010BD0146254A127831
:102EF0004A434FF0E0235A6100229A611A46126950
:102F000042F001021A6100BF4FF0E022106900F0A8
:102F100001021AB100F48032002AF5D04FF0E0220D
:102F2000126922F001024FF0E0231A6100229A6137
:102F300070470146144A12884A434FF0E0235A6111
:102F400000229A611A46126942F001021A6100BF1A
:102F50004FF0E022106900F001021AB100F4803253
:102F6000002AF5D04FF0E022126922F001024FF062
:102F7000E0231A6100229A617047000000000020DF
:102F800000127A004C0000204E00002000BF704765
:102F900000BF404A128802F04002002AF9D0C2B2B3
:102FA0003C4B1B1D1A80704710B586B004460121AA
:102FB00044F2040000F020FC4FF40070ADF814005F
:102FC00003208DF8160018208DF8170005A9324847
:102FD00000F056F94FF48060ADF8140004208DF82D
:102FE000170005A92C4800F04BF901940020ADF81A
:102FF0000800ADF80A00ADF80C00ADF8100008208C
:10300000ADF80E0001A9234801F0BFFB01212148C2
:1030100001F047FC06B010BD10B540F225511D4827
:1030200001F030FD10B31B4801F0ACFCC4B21B48EA
:10303000008800F40040C8B91848008800F48040B7
:1030400060B10A2C03D000201449088020E0134806
:10305000008840F400401149088019E00D2C06D189
:103060000E48008840F480400C49088010E00B486E
:103070000088C0F30D000A490C5408480088401C21
:103080000649088008460088C72801DD002008801E
:1030900010BD00000038014000080140540000202D
:1030A000E40000200948804709480047FEE7FEE7A2
:1030B000FEE7FEE7FEE7FEE7FEE7FEE7FEE7FEE7E8
:1030C00004480549054A064B7047000033030008D1
:1030D000310100081002002010C200201042002020
:1030E0001042002031490143314A1160704770B5E8
:1030F000002100230F22C47804B32D4C246804F46B
:10310000E064C4F5E064210AC1F10403CA404478D4
:1031100004FA03F18478144021430901254C067810
:10312000A155047804F01F050124AC4005786D1109
:10313000AD0005F1E025C5F8004109E0047804F090
:103140001F050124AC401C4D0678761145F8264039
:1031500070BD1A4A0A400243154B1B1F1A60704784
:1031600039B1134A121D12680243114B1B1D1A601C
:1031700006E00F4A121D126882430D4B1B1D1A6098
:103180007047042808D14FF0E021096941F004019B
:103190004FF0E022116107E04FF0E021096921F0D2
:1031A00004014FF0E0221161704700000000FA05B1
:1031B0000CED00E000E400E080E100E080FFFF1F94
:1031C00010B50446CC48844208D10121042000F007
:1031D0002DFB0021042000F029FB46E0C748844273
:1031E00008D10121082000F021FB0021082000F077
:1031F0001DFB3AE0C248844208D10121102000F0B2
:1032000015FB0021102000F011FB2EE0BD48844288
:1032100008D10121202000F009FB0021202000F02E
:1032200005FB22E0B848844208D10121402000F08B
:10323000FDFA0021402000F0F9FA16E0B34884427C
:1032400008D10121802000F0F1FA0021802000F057
:10325000EDFA0AE0AE48844207D10121801500F062
:10326000E5FA0021A01500F0E1FA10BD10B501212A
:10327000084600F0DBFA0021012000F0D7FA10BD6B
:103280002DE9F041024600250026002000230024FD
:10329000002791F803C00CF00F0591F803C00CF063
:1032A000100CBCF1000F03D091F802C04CEA0505E8
:1032B00091F800C0BCF1000F31D0146800202BE061
:1032C0004FF0010C0CFA00F3B1F800C00CEA030651
:1032D0009E4220D183004FF00F0C0CFA03F7BC4341
:1032E00005FA03FC4CEA040491F803C0BCF1280F72
:1032F00006D14FF0010C0CFA00FCC2F814C00AE031
:1033000091F803C0BCF1480F05D14FF0010C0CFA45
:1033100000FCC2F810C0401C0828D1D31460B1F8DA
:1033200000C0BCF1FF0F34DD546800202EE000F136
:10333000080C4FF0010808FA0CF3B1F800C00CEAD1
:1033400003069E4221D183004FF00F0C0CFA03F7C5
:10335000BC4305FA03FC4CEA040491F803C0BCF139
:10336000280F05D100F1080C08FA0CF8C2F81480F7
:1033700091F803C0BCF1480F07D100F1080C4FF0E1
:10338000010808FA0CF8C2F81080401C0828CED3B7
:103390005460BDE8F0814FF6FF7101800221817019
:1033A0000421C17070470246002093680B400BB1A6
:1033B000012000E0002070470146886880B2704715
:1033C00002460020D3680B400BB1012000E0002032
:1033D00070470146C86880B270470161704741611B
:1033E00070470AB1016100E041617047C1607047F8
:1033F0004FF480320A43826181618261826982690D
:10340000704702460020434B18684FF680731840FF
:1034100040EA021008433F4B186070473E49C861BC
:103420007047F0B50A46002300240021002500F073
:103430000046B6F1004F02D1364EF16901E0354E3B
:103440007168C0F3034583B200F44016B6F5401F1F
:1034500008D121F070612F4E766826F070662D4FEE
:103460007E6012E000F48016B6F5801F06D10326B8
:1034700006FA05F4A14341F0706106E0460D3601FD
:1034800003FA06F6B14341F0706122B1460D3601F0
:1034900003FA06F6314300F00046B6F1004F02D1C0
:1034A0001C4EF16101E01B4E7160F0BD30B5002291
:1034B0008B071C0F0F2303FA04F2164B08338C10F2
:1034C00053F824309343134C08348D1044F82530BE
:1034D00023468C1053F824308C07240F00FA04F490
:1034E00023430C4C08348D1044F8253030BD0A4974
:1034F000DC3108607047000000080140000C01400A
:10350000001001400014014000180140001C01405F
:10351000002001400000014000002042DF48006818
:1035200040F00100DD49086008464068DC49084079
:10353000DA49486008460068DA490840D749086017
:103540000846006820F4802008600846406820F49F
:10355000FE0048604FF41F0088607047CF4909683B
:1035600021F48031CD4A11601146096821F480218F
:103570001160B0F5803F03D0B0F5802F0ED106E08A
:10358000C649096841F48031C44A116007E0C34963
:10359000096841F4A021C14A116000E000BF00BFEA
:1035A000704710B501460022002300204A11012A6D
:1035B00002D1BA4C236806E0022A02D1B74C236A32
:1035C00001E0B64C636A01F01F02012494401C40E4
:1035D0000CB1012000E0002010BD38B500200090A3
:1035E0000024002500BF3120FFF7DBFF05460098CF
:1035F000401C00900098B0F5A06F01D0002DF2D0D3
:103600003120FFF7CEFF08B1012400E0002420465E
:1036100038BD01460020A14A106820F0F80040EAB9
:10362000C10010607047A049086070470246002042
:103630009A4B586820F47C1042EA01031843974BD8
:103640005860704798490866704701460020934AC1
:10365000506820F003000843506070478F4840686E
:1036600000F00C007047014600208C4A506820F0A2
:10367000F00008435060704701460020874A5068B8
:1036800020F4E06008435060704701460020834A00
:10369000506820F4605040EAC1005060704729B182
:1036A0007E4A527A02437D4B5A7204E07B4A527A38
:1036B00082437A4B5A7270477B49D8310860704711
:1036C00001460020754A506820F44040084350608D
:1036D00070470021714A20321170704A82F8201020
:1036E000012802D004280AD104E001216B4A2032CB
:1036F000117005E00521694A2032117000E000BF19
:1037000000BF70476949086070476449096A01430E
:10371000624A11627047654944390860704730B5A4
:1037200000210022002400235C4D6D6805F00C018F
:1037300021B1042905D0082923D105E05C4D05609D
:1037400022E05B4D05601FE0544D6D6805F470127A
:10375000524D6D6805F48034022505EB92421CB988
:10376000544D554305600BE04C4D6D6805F4003534
:103770001DB1504D5543056002E04D4D5543056068
:1037800002E04B4D056000BF00BF444D6D6805F081
:10379000F0010909484D6B5C0568DD4045603F4D0F
:1037A0006D6805F4E061090A434D6B5C4568DD40D6
:1037B00085603A4D6D6805F46051C90A3E4D6B5CF9
:1037C0004568DD40C560354D6D6805F44041890BA5
:1037D0003A4D6B5CC568B5FBF3F5056130BD29B1A9
:1037E0002E4A526902432D4B5A6104E02B4A52691A
:1037F00082432A4B5A61704729B1284A9269024391
:10380000264B9A6104E0254A92698243234B9A61D0
:10381000704729B1214AD2690243204BDA6104E0A2
:103820001E4AD26982431D4BDA61704729B11B4A97
:10383000D2680243194BDA6004E0184AD268824326
:10384000164BDA60704729B1144A12690243134BD0
:103850001A6104E0114A12698243104B1A617047E1
:1038600012494039086070470F49C86470470B49D6
:10387000C87170470948406A40F080700749486243
:10388000704701460020054A92680A400AB10120AB
:1038900000E0002070470149887270470010024024
:1038A0000000FFF8FFFFF6FE0000424280044242A3
:1038B00000127A0000093D0056000020660000203A
:1038C00010B50446FB48844208D10121C014FFF71B
:1038D000ADFF0021E014FFF7A9FFC4E0B4F1804F71
:1038E00008D101210846FFF7AEFF00210120FFF7B4
:1038F000AAFFB8E0F048844208D101210220FFF776
:10390000A2FF00210220FFF79EFFACE0EB488442BB
:1039100008D101210420FFF796FF00210420FFF7C2
:1039200092FFA0E0E648844208D101210820FFF779
:103930008AFF00210820FFF786FF94E0E1488442D7
:1039400008D101211020FFF77EFF00211020FFF792
:103950007AFF88E0DC48844208D101212020FFF76B
:1039600072FF00212020FFF76EFF7CE0D7488442E1
:1039700008D101214014FFF759FF00216014FFF71F
:1039800055FF70E0D248844209D10121C804FFF7F5
:103990004DFF00214FF40020FFF748FF63E0CD48C2
:1039A000844209D101210805FFF740FF00214FF4AF
:1039B0008010FFF73BFF56E0C748844209D1012140
:1039C0004805FFF733FF00214FF40010FFF72EFFEB
:1039D00049E0C248844208D101214020FFF733FF6B
:1039E00000214020FFF72FFF3DE0BD48844208D171
:1039F00001218020FFF727FF00218020FFF723FF10
:103A000031E0B848844208D101218015FFF71BFF3F
:103A10000021A015FFF717FF25E0B348844209D124
:103A200001210804FFF702FF00214FF48030FFF767
:103A3000FDFE18E0AD48844209D101214804FFF79A
:103A4000F5FE00214FF40030FFF7F0FE0BE0A84830
:103A5000844208D101218804FFF7E8FE00214FF4D9
:103A60008020FFF7E3FE10BD00220288914B9842B0
:103A70000ED0964B98420BD0B0F1804F08D08E4BB1
:103A8000984205D08D4B984202D08D4B984204D17C
:103A90004FF68F731A404B881A438A4B984207D0CF
:103AA000894B984204D04FF6FF431A40CB881A4303
:103AB00002808B8883850B8803857E4B98420BD0D0
:103AC000824B984208D0884B984205D0874B984249
:103AD00002D0874B984201D10B7A0386012383825F
:103AE000704770B5002400220023824D2D68012DFF
:103AF00004D1058C4FF6FE7635400584028C838810
:103B0000048B4FF68F752C404FF6FC752C400D88BA
:103B10002C434FF6FD752A400D892A434D882A43D0
:103B2000644DA8420BD0694DA84208D06E4DA84202
:103B300005D06E4DA84202D06D4DA84213D14FF66C
:103B4000F7752A404D892A434FF6FB752A408D8828
:103B50002A434FF6FF652B404FF6FF552B408D89CA
:103B60002B43CD892B4383800483CD8885860284B3
:103B700070BD70B50024002200235E4D2D68012D1C
:103B800004D1058C4FF6EF7635400584028C83888E
:103B9000048B48F6FF752C404FF6FF452C400D88EE
:103BA0004FF6FF7606EA05252C434FF6DF752A40CF
:103BB0000D8906EA05152A434D8806EA05152A43AC
:103BC0003C4DA84202D0414DA8421DD14FF67F7511
:103BD0002A404D894FF6FF7606EA05152A434FF62F
:103BE000BF752A408D8806EA05152A434FF6FF3532
:103BF0002B404FF2FF752B408D8906EA85052B433C
:103C0000CD8906EA85052B4383800483CD8805870B
:103C1000028470BD70B5002400220023354D2D684C
:103C2000012D04D1058C4FF6FF6635400584028CCA
:103C30008388848B4FF68F752C404FF6FC752C4093
:103C40000D882C434FF6FF552A400D894FF6FF761D
:103C500006EA05252A434D8806EA05252A43154D1F
:103C6000A84202D0194DA8421DD14FF2FF752A403B
:103C70004D894FF6FF7606EA05252A434FF6FF35B4
:103C80002A408D8806EA05252A434EF6FF752B400B
:103C90004DF6FF752B408D8906EA05152B43CD891E
:103CA00006EA05152B4383808483CD8885870284AB
:103CB00070BD0000002C01400004004000080040DE
:103CC000000C00400010004000140040003401408F
:103CD000004C0140005001400054014000180040D9
:103CE000001C004000200040004001400044014012
:103CF000004801403000002070B50022002300245D
:103D0000F94D2D68012D04D1058C4EF6FF76354016
:103D10000584038C8488828B48F6FF752A404FF611
:103D2000FF452A400D884FF6FF7606EA05252A430F
:103D30004DF6FF752B400D8906EA05352B434D885E
:103D400006EA05352B43E94DA84202D0E84DA842CA
:103D500008D14BF6FF752C408D894FF6FF7606EAA9
:103D600085152C4384808283CD88A0F8405003843D
:103D700070BD828B4FF2FF331A408283828B4FF6E5
:103D8000FF7303EA01231A4382837047F0B50C46A0
:103D90001546002200210026078C4EF6FF7C07EA1C
:103DA0000C070784828B018C4FF6FF7707EA0436F5
:103DB00040F6FF473A404FF6FF7707EA05273A43B8
:103DC0004FF6FF7707EA03373A43C84FB8420ED0A1
:103DD000C74FB8420BD0B0F1804F08D0C54FB842A2
:103DE00005D0C54FB84202D0C44FB84206D14DF6F7
:103DF000FF77394046F48057394305E047F6FF57CF
:103E0000394044F48057394382830184F0BD828B6A
:103E10004FF6F3731A408283828B0A438283704782
:103E2000F0B50C461546002200210026078C4FF6FF
:103E3000FF6C07EA0C070784828B018C4FF6FF7733
:103E400007EA04264FF60C773A404FF6FF7707EA69
:103E500003172F433A43A54FB8420ED0A44FB842A0
:103E60000BD0B0F1804F08D0A24FB84205D0A24F7E
:103E7000B84202D0A14FB84206D14FF6FF573940A1
:103E800046F48077394305E04FF2FF57394044F458
:103E90008077394382830184F0BD028B4FF2FF3378
:103EA0001A400283028B4FF6FF7303EA01231A4381
:103EB00002837047F0B50C4615460022002100260B
:103EC000078C4FF6EF7C07EA0C070784028B018C06
:103ED0004FF6FF7707EA041640F6FF473A404FF6E1
:103EE000FF7707EA03373A434FF6FF7707EA0527DC
:103EF0003A437E4FB8420ED07D4FB8420BD0B0F15E
:103F0000804F08D07B4FB84205D07B4FB84202D0DB
:103F10007A4FB84206D14FF6DF77394046F01007A6
:103F2000394305E04FF65F77394044F010073943D5
:103F300002830184F0BD028B4FF6F3731A400283B3
:103F4000028B0A4302837047F0B50C4615460022E7
:103F50000021068C4FF6FE773E400684028B018CD2
:103F60004FF60C7632407E1C06EA03162E4332438F
:103F70005E4EB0420ED05E4EB0420BD0B0F1804FDC
:103F800008D05C4EB04205D05B4EB04202D05B4ED2
:103F9000B04206D14FF6FD76314044F00106314380
:103FA00005E04FF6F576314044F0010631430283D7
:103FB0000184F0BD70B505460C464C4885420ED0D4
:103FC0004B4885420BD0B5F1804F08D04948854217
:103FD00005D04948854202D04848854200D100E0DA
:103FE00000BF208850B92389A28861882846FFF73E
:103FF000ABFFE1882846FFF79EFF25E020880428D4
:104000000AD12389A28861882846FFF753FFE188F7
:104010002846FFF742FF17E0208808280AD12389A5
:10402000A28861882846FFF7FBFEE1882846FFF753
:10403000EEFE09E02389A28861882846FFF7A6FEE4
:10404000E1882846FFF795FE70BD2DE9F041054651
:104050000C4600260127608808B9022600E00026E9
:10406000A088012801D1022700E001272088A0B9FB
:104070002389A28861882846FFF766FFE1882846E1
:10408000FFF759FF23893A4631462846FFF712FFCA
:10409000E1882846FFF701FF13E02389A2886188A1
:1040A0002846FFF707FFE1882846FFF7F6FE238939
:1040B0003A4631462846FFF747FFE1882846FFF792
:1040C0003AFFBDE8F0810A884B881A438B881A436F
:1040D000CB881A430B891A434B891A438B891A439D
:1040E000A0F844207047000030000020002C014060
:1040F000003401400004004000080040000C004073
:104100004FF6FF71818000210180C18041800172E2
:1041100070470021018041808180C18001814181FF
:104120008181C1817047002101804180012181800E
:104130000021C18001817047002101804180818080
:10414000C180018141818181704721B1028842F0A3
:104150000102028004E002884FF6FE731A400280DA
:10416000704731B1B0F8442042F40042A0F8442036
:1041700005E0B0F84420C2F30E02A0F844207047D6
:104180001AB183890B43838102E083898B43838146
:1041900070478182704741EA0203A0F848307047B7
:1041A0001AB183890B43838102E083898B43838126
:1041B000704701894FF6F8721140018170470A4635
:1041C000002101894FF68F73194011430181704717
:1041D00030B504460D4629462046FFF7F0FF2089FA
:1041E00040F00700208130BD2DE9F04104460D4626
:1041F00016461F46602D06D13B4601223146204619
:10420000FFF758FE05E03B46012231462046FFF706
:104210009BFE29462046FFF7D2FF208940F0070089
:104220002081BDE8F08130B50C4600210189C9B27A
:104230004FF6FF7505EA0325154325432943018100
:1042400030BD2DE9F04105460E461746984600243C
:1042500043463A4631462846FFF7E5FF2C894FF69C
:10426000F870044044F007044FF68F70044044F0A7
:1042700070042C81BDE8F081F0B504460D46164669
:104280001F463B46324629462046FFF7CCFF208991
:1042900040F480402081F0BD0185828270470A464B
:1042A000002101884FF68F73194011430180704738
:1042B000F0B50C4615461E46002100220023018958
:1042C000028B038C4FF6F877394021434FF6FC47B9
:1042D0003A4040F201173A434FF6DD773B404FF644
:1042E000FF7707EA06172F433B43018102830384CC
:1042F000F0BD0A460021018B4FF68F731940114320
:10430000018370470A460021018B48F6FF7319406C
:104310004FF6FF7303EA02231943018370470A46ED
:104320000021818B4FF68F731940114381837047B1
:104330000A460021818B48F6FF7319404FF6FF7340
:1043400003EA022319438183704721B1028842F0B6
:104350008002028004E002884FF67F731A400280D8
:10436000704721B1828842F00402828004E0828892
:104370004FF6FB731A408280704721B1828842F069
:104380000802828004E082884FF6F7731A40828028
:10439000704721B1828842F00102828004E0828865
:1043A0004FF6FE731A40828070470A460021018B47
:1043B0004FF6F77319401143018370470A460021F5
:1043C000018B4FF2FF7319404FF6FF7303EA02238C
:1043D0001943018370470A460021818B4FF6F7731A
:1043E00019401143818370470A460021818B4FF2A7
:1043F000FF7319404FF6FF7303EA022319438183C9
:1044000070470A460021018B4FF6FB731940114398
:10441000018370470A460021018B4FF6FF33194094
:104420004FF6FF7303EA02231943018370470A46DC
:104430000021818B4FF6FB73194011438183704734
:104440000A460021818B4FF6FF3319404FF6FF7368
:1044500003EA02231943818370470A460021018B36
:104460004FF67F7319401143018370470A460021BC
:10447000018BC1F30E014FF6FF7303EA02231943C8
:10448000018370470A460021818B4FF67F731940E4
:104490001143818370470A460021818BC1F30E01CD
:1044A0004FF6FF7303EA02231943818370470A46DC
:1044B0000021018C4FF6FD731940114301847047B0
:1044C0000A460021018C4FF6F7731940114301840D
:1044D00070470A460021018C4FF6DF7319404FF6F2
:1044E000FF7303EA02131943018470470A4600214F
:1044F000018C4FF67F7319404FF6FF7303EA0213E6
:104500001943018470470A460021018C4FF6FF537E
:1045100019404FF6FF7303EA0223194301847047E1
:104520000A460021018C4FF2FF7319404FF6FF73CA
:1045300003EA02231943018470470A460021018CD3
:104540004DF6FF7319404FF6FF7303EA0233194328
:104550000184704730B5002301248C40A3B2048C41
:104560009C430484048C02FA01F5ADB22C4304840C
:1045700030BD30B5002304248C40A3B2048C9C438E
:104580000484048C02FA01F5ADB22C43048430BDDE
:1045900070B50346002000241846183001258D40D0
:1045A000ACB21D8CA5431D8409B1082909D100EBCB
:1045B0006100056825F07005056005681543056014
:1045C0000EE00D1FC5F34E052844056825F4E045AF
:1045D000056005684FF6FF7606EA0226354305605A
:1045E00070BD21B1028842F00202028004E002881C
:1045F0004FF6FD731A400280704721B1028842F0E5
:104600000402028004E002884FF6FB731A40028025
:10461000704721B1828842F08002828004E0828863
:104620004FF67F731A408280704702884FF6F77307
:104630001A40028002880A430280704782884FF63F
:104640008F731A40828082880A4382807047028971
:104650004FF6F8731A40028102890A4302817047BB
:1046600002894FF67F731A40028102890A43028150
:1046700070478184704781857047818670470187C4
:10468000704781877047A0F84010704702884FF646
:10469000FF431A40028002880A43028070470146A5
:1046A000888E70470146088F70470146888F704793
:1046B0000146B1F8400070470146888C70470146BA
:1046C000088D704702460020138A0B400BB1012071
:1046D00000E000207047CA430282704730B50246AE
:1046E000002000230024158A05EA0103958905EAC4
:1046F000010413B10CB1012000E0002030BDCA4319
:104700000282704710B50446FB48844209D101215A
:104710008803FFF78BF800214FF48040FFF786F8FD
:1047200032E0F648844209D101214804FFF78BF8B2
:1047300000214FF40030FFF786F825E0F04884426E
:1047400009D101218804FFF77EF800214FF4802071
:10475000FFF779F818E0EB48844209D10121C80439
:10476000FFF771F800214FF40020FFF76CF80BE021
:10477000E548844208D101210805FFF764F80021CB
:104780004FF48010FFF75FF810BD2DE9F04786B0B9
:1047900005460E460024A24600BFA1460027B08968
:1047A00000B100BF2F462C8A4CF6FF700440F08801
:1047B00004432C82AC894EF6F3100440B088318952
:1047C0000843718908430443AC81AC8A4FF6FF402B
:1047D0000440B0890443AC8201A8FEF7A0FFC6489C
:1047E000874202D1DDF810A001E0DDF80CA0A88915
:1047F00000F4004040B10AEBCA0000EB0A10316837
:104800004900B0FBF1F807E00AEBCA0000EB0A1020
:1048100031688900B0FBF1F86420B8FBF0F00401C6
:104820002009642101FB1089A88900F4004040B1EF
:10483000322000EBC900B0FBF1F000F007000443A8
:1048400008E0322000EB09106421B0FBF1F000F029
:104850000F0004432C8106B0BDE8F0874FF41651D9
:10486000016000218180C18001810C2141810021F2
:104870008181704710B502460020108A4FF2FF0375
:1048800018400B884C8823438C882343CC882343CF
:104890001843108210BD0021018041808180C180B9
:1048A000704721B1828942F40052828104E08289FA
:1048B0004DF6FF731A4082817047F0B5034600241D
:1048C00000260025002040F66A17B94200D100BF3B
:1048D0001846C1F3421401F01F06012707FA06F536
:1048E000012C01D10C3004E0022C01D1103000E089
:1048F00014301AB107682F43076002E00768AF431E
:104900000760F0BD1AB1838A0B43838202E0838A79
:104910008B4383827047028A4FF6F0731A400282FB
:10492000028A0A430282704782894FF2FF731A405B
:10493000828182890A438281704721B1828942F053
:104940000202828104E082894FF6FD731A4082815F
:104950007047028A4FF6DF731A400282028A0A43C6
:104960000282704721B1028A42F48042028204E04E
:10497000028A4BF6FF731A4002827047C1F30802A5
:104980008280704701468888C0F30800704781899B
:1049900041F0010181817047028BD2B20283028B08
:1049A00042EA012202837047028B02F47F420283B3
:1049B000028B0A430283704721B1828A42F02002AF
:1049C000828204E0828A4FF6DF731A408282704747
:1049D00021B1828A42F01002828204E0828A4FF67C
:1049E000EF731A408282704721B1828A42F0080236
:1049F000828204E0828A4FF6F7731A4082827047FF
:104A000021B1828942F40042828103E08289C2F3AB
:104A10000E028281704721B1828A42F40062828252
:104A200004E0828A4FF2FF731A4082827047828AC2
:104A30004FF6FB731A408282828A0A438282704751
:104A400021B1828A42F00202828204E0828A4FF619
:104A5000FD731A408282704702460020B1F5007F44
:104A600000D100BF13880B400BB1012000E00020F3
:104A7000704701F40072B2F5007F00D100BFCA4355
:104A80000280704770B502460024002300250020F4
:104A900040F66A16B14200D100BFC1F3421501F0E1
:104AA0001F03012606FA03F3012D02D19689334034
:104AB00006E0022D02D1168A334001E0968A334087
:104AC0000C12012606FA04F41688344013B10CB116
:104AD000012000E0002070BD10B50022002340F648
:104AE0006A14A14200D100BF0A1201249440A3B26B
:104AF000DC43048010BD0000003801400044004049
:104B000000480040004C004000500040704700004A
:104B10000FB4044910B503AA029800F05FFB10BC63
:104B20005DF814FB500000202DE9F04106460024FA
:104B300010687529314616A510D0AFF30080002803
:104B400002DA404213A507E031688A0701D512A5B1
:104B500002E0490704D511A5012401E0AFF300806C
:104B600000210A2206F1240709E0B0FBF2FCB0FBA9
:104B7000F2F302FB1C00303078541846491C002820
:104B8000F3D123462A463046BDE8F04100F0BFB8D5
:104B9000000000002D0000002B000000200000009D
:104BA00070B504460D4621461068AFF30080218899
:104BB000090502D50F4A7A4402E00E4A7A440E32C1
:104BC000002104F1240305E000F00F060009965DC2
:104BD0005E54491C0028F7D120780023000704D533
:104BE000702D02D009B1022311322046BDE8704079
:104BF00000F08DB88E1B00002DE9F0474FF0000A41
:104C000089460446C0F820A02046E168884700286D
:104C100076D0252806D0D4E901219047206A401C8F
:104C20002062F1E7E168204600258847C4F81CA00F
:104C300006460027C4F818A02A2E09D0304601F0F5
:104C400032F838B304EB8708303EC8F8186019E032
:104C500059F8041B204604EB87029161E1688847FC
:104C6000012F064618D1E069002820DA25F020053A
:104C70001DE0D8F8180000EB800006EB400030384B
:104C8000C8F818002046E1688847064601F00BF88E
:104C90000028EED1012F0AD02E2E08D12046E1683F
:104CA00088477F1C0646022F45F02005C4DBA0691B
:104CB000002803DA404245F00105A061E80701D071
:104CC00025F01005B6B1A6F14100192802D820360A
:104CD00045F400654A463146204625604D46FBF7BF
:104CE00061FA58B1012806D0ED1D25F0070000F14A
:104CF000080989E704E005F1040985E730468AE7F9
:104D0000206ABDE8F08770477047704770472DE90B
:104D1000F0470D4699469246044600F12408016882
:104D2000880604D5E06921F01001216000E001202F
:104D3000A84201DD471B00E00027A1697A1902EBB8
:104D40000900081AA0612078C00602D42046AFF3FB
:104D50000080002608E0D4E901211AF806009047F7
:104D6000206A401C761C20624E45F4DB2078C00689
:104D70000AD52046AFF3008006E0D4E901213020B7
:104D80009047206A401C2062381EA7F10107F4DC1E
:104D900007E0D4E9012118F805009047206A401C7B
:104DA0002062281EA5F10105F3DC2046AFF3008048
:104DB0002078000602D50220BDE8F0870120FBE73D
:104DC00070472DE9FF4F0C461E464FF0FF378BB062
:104DD000D2E90001DDF860800A908A46C1F30A55E5
:104DE00005B93D46002108464FF00000BAF1000F1A
:104DF00000F4400005DA00EB80004FF4400101EAC6
:104E000050004FEA9059B9F1010F00DDB9460A98F8
:104E100050EA4A000ED044F61050A5F2FF35454343
:104E20002F14B8F1000F1ED07542291E1EDDC9F1E6
:104E300000021CE0B8F1010F4FF0000001D030215A
:104E400003E0F24305E02154401CB042FBDB304656
:104E50000022002121540B99C1F80880C1E90020EB
:104E60000FB0BDE8F08FBD1B6D1CDEE74A4600DACF
:104E7000694206A800F066FA06AB93E8070003ABA8
:104E800083E8070050460A9900F03EFB8DE80700D2
:104E9000A0F500501F3800900398002D09DD42F264
:104EA0001F014A46084403A90390684600F09DFD8F
:104EB00008E0A0F500504A461F3803A90390684651
:104EC00000F0A7FD8DE807000004000C03D04FF0B0
:104ED000FF30410800E01046B8F1000F03D0002277
:104EE000009215461EE0751E05D400F08DF9303293
:104EF00062556D1EF9D5B3460122084302D0002247
:104F00007F1C04E02078302801D100227F1E002A77
:104F1000099786D01DE0112D07DA00F075F93032BF
:104F200062556D1C50EA0102F5D1084302D0009889
:104F3000C8B10EE00021681E05E0235C625C63548A
:104F40002254401E491C8142F7DBAB46A81B401E81
:104F50000990002004F80B000B98099AC0F808800B
:104F6000C0E9002B7CE711264FF0000859E72DE936
:104F7000F04F88460446D21D22F0070191B0D1E9D6
:104F80000001CDE90A0100F07AFE02460B98C00F3D
:104F900001D02D2007E02068810701D52B2002E0F9
:104FA000202101EAC000032A099001D0072A05DB6D
:104FB00003464146204600F085F90BE12078800643
:104FC00001D5E06900E00620B8F1650F814606D002
:104FD000B8F1660F18D0B8F1670F70D131E000203A
:104FE000B9F1110F009001DB112301E009F1010378
:104FF0000AAA01A90CA8FFF7E4FEDDE90C7000265F
:1050000009F10105834647E001204B4600904FF02F
:1050100000470AAA01A90CA8FFF7D3FEDDE90DB0ED
:105020000C995D46002610B909F101000D18B9EB85
:10503000050003D4C0F1FF3609F10105A5EB090015
:105040002BE0B9F1010F01DA4FF001090020B9F1AD
:10505000110F0090484601DD112300E003460AAA23
:1050600001A90CA8FFF7ADFEDDE90C704D46002646
:105070008346207800070AD4AB4500DA5D4601A8D4
:10508000012D04DD411911F8011C302907D04F45CD
:1050900002DA17F1040F04DA012082460FE06D1ED8
:1050A000EEE7002F02DCED1B3E4403E0781CA84233
:1050B00000DD7D1CB81B00F1010A4FF0004720788D
:1050C000000703D4AA4501DB4FF0FF3A0021B7F1F6
:1050D000004F0DF143088DF8431024D002202B23FC
:1050E000002F01DA7F422D230A21021EA0F10100C8
:1050F00000DC5FB197FBF1FC97FBF1F201FB1C7C3C
:1051000017460CF1300C08F801CDEEE7A8F10100CC
:1051100003702188090501D5452100E06521A0F132
:10512000010800F8011C09980FA9A1EB0807FF1D51
:1051300000B10120411901EBEA70A1693844081A55
:10514000401EA0612078C00602D42046AFF3008044
:10515000099828B1D4E901219047206A401C2062B7
:105160002078C00622D52046AFF300801EE0002E36
:1051700004DBB34502DD01A8805D00E03020D4E906
:1051800001219047206A401C2062761CAAF1010090
:105190005FEA000A0AD100F033F8C0680168405C99
:1051A000D4E901219047206A401C2062281EA5F105
:1051B0000105DCDC07E0D4E9012118F8010B904778
:1051C000206A401C2062381EA7F10107F3DC20464C
:1051D000AFF30080032011B043E60000074B70B529
:1051E0000D467B4400F05BF80446284600F018F9B1
:1051F00010B14FF0FF3070BD204670BDABDDFFFF3A
:1052000000487047CC01002030B5B0F10A024FEAE7
:10521000900E71F100034EEA817EB0EB0E0061EB5F
:1052200091014FEA101E4EEA017E10EB0E0041EB99
:1052300011114FEA102E4EEA016E10EB0E0041EBF9
:1052400011214FEA104E4EEA014E10EB0E0041EBD9
:105250001141401841F100014FEAD00040EA41708D
:105260004FEAD10110EB80054FEA810444EA9074C3
:1052700044EB01046D1944EB0404521BA3414FF0AD
:10528000000348BF0A3200D530BD401C41F1000187
:1052900030BD000001694A1C02610878704700B502
:1052A0008FB0CDE901310021059105497944CDE95F
:1052B000031011466846FFF79FFC0FB000BD0000C9
:1052C000E5FFFFFF2DE9F0411F4604460326016874
:1052D000072A01F4006004DB08B116A505E016A555
:1052E00003E008B115A500E015A521F0100020602D
:1052F000A069C01EA0610FB1401EA0612046AFF39F
:1053000000804FB1D4E9012138469047206A401C03
:105310002062C01C206206E0206AFAE7D4E901217D
:1053200015F8010B9047761EF8D22046AFF30080A7
:10533000BDE8F0814E414E006E616E00494E460060
:10534000696E66002DE9F047814616468AB03348FB
:1053500078440DC88DE80D0030487844801C03ACBB
:105360000DC884E80D0041F69B300844372190FBBE
:10537000F1F290FBF1F5A5F1800501FB12041B3C55
:1053800002D56442012000E00020DFF890A08046B2
:105390000027FA44AAF1BE0A0DE0E00709D0324620
:1053A000684607EB47010AEB810100F032FB8DE80C
:1053B000070064107F1C002CEFD1184F7F44AC3FD6
:1053C00018E0E80714D007EB04100DF1180A90E874
:1053D0000E008AE80E00C068F04201D198190890CA
:1053E000324606A903A800F014FB03AB83E80700CC
:1053F0006D10641C002DE4D132466946B8F1000FEF
:1054000003A802D000F0F1FA01E000F002FBC9E9C4
:105410000001C9F808200AB0BDE8F0879814000020
:10542000007B00F08000704700487047AC0100200E
:105430007546FFF7F9FFAE4605006946534620F072
:105440000700854618B020B5FDF73AFEBDE82040BC
:105450004FF000064FF000074FF000084FF0000B30
:1054600021F00701AC46ACE8C009ACE8C009ACE8E3
:10547000C009ACE8C0098D4670470446AFF3008010
:105480002046FAF7AFFE00004FF0013C50F8042B25
:1054900051F8043B9A4221D1A2EB0C03934313EA47
:1054A000CC1317D150F8042B51F8043B9A4215D174
:1054B000A2EB0C03934313EACC130BD150F8042B4B
:1054C00051F8043B9A4209D1A2EB0C03934313EA2F
:1054D000CC13DBD04FF00000704700BFD01A01BAE8
:1054E000B1FA81F101F0180122FA01F0CB40C1F1CB
:1054F0002001DBB2C0B2C01A2CFA01F3D11A9143D9
:1055000011EAC311E6D170475FEA400C08BF91F081
:10551000000F4FEA8C234FEAC12243EA51514FEA70
:105520001C5018BF00F5F0404FEA300018BF41F0A2
:1055300000415FEA6C5C00F02980BCF1FF3F08BFCE
:1055400040F080407047130C06BF12044FF0100C5F
:105550004FF0000C130E04BF12020CF1080C130FD5
:1055600004BF12010CF1040C930F04BF92000CF164
:10557000020CD30F04BF52000CF1010C11464FF086
:105580000002A0F11F00A0EB0C00704711F0004FCB
:1055900008BF704731F000413FF4D5AF0B0C06BF98
:1055A00009044FF0100C4FF0000C0B0E04BF090261
:1055B0000CF1080C0B0F04BF09010CF1040C8B0F4C
:1055C00004BF89000CF1020CCB0F04BF49000CF1A1
:1055D000010CCCF12003A0EB0C0022FA03F302FA39
:1055E0000CF241EA030100F10100704720F07F4C0A
:1055F00080EA030023F07F47ACEB070303F57C53FD
:1056000000F0004003F1FF032DE980494FEA154BFC
:1056100009B44FEA144325EA0B4E24EA03480FF27B
:10562000042606EB132749083E785FEA320203FBA3
:105630000667C7F5000707FB06F64FEA54374FEA3F
:10564000D64606F1020607FB066CCCF1005C4FEA79
:105650001C472CEA074C07FB06F40CFB06F504EB91
:1056600015464FEA961634BF00204FF000404FEA2F
:10567000D13706FB07FC4FEA1C4C0CFB0BF7D21B87
:1056800003FB0CF761EB07010CFB0EF7B0EB0740D7
:1056900072EB17420CFB08F734BFA2EB0742B2EBE8
:1056A000074261EB17414FEA0C444FEA910706FBB2
:1056B00007FC4FEA1C4C0CFB0BF7B0EBC74072EB3E
:1056C000573203FB0CF734BFA2EBC742B2EBC74221
:1056D00061EB57310CFB0EF7B0EBC70072EB577262
:1056E0000CFB08F734BFA2EBC702B2EBC70261EBB9
:1056F0005771039F4FEA816141EA921104EBCC0498
:105700004FEAD1374FEA826206FB07FC42EA901269
:105710004FEA80604FEA1C4C0CFB0BF7D21B03FBDB
:105720000CF761EB07010CFB0EF7B0EB074072EBD7
:1057300017420CFB08F734BFA2EB0742B2EB07425B
:1057400061EB17414FEA8C554FEA910704EB9C241B
:1057500006FB07FC4FEA1C4C0CFB0BF7B0EBC740F9
:1057600072EB573203FB0CF734BFA2EBC742B2EB2C
:10577000C74261EB57310CFB0EF7B0EBC70072EB81
:1057800057720CFB08F734BFA2EBC702B2EBC7029B
:1057900061EB577115EB4C254FEA816141EA92119B
:1057A0004FEA82624FEAD13742EA901206FB07FCC9
:1057B00044F100044FEA80604FEA1C4C0CFB0BF7ED
:1057C000D21B03FB0CF761EB07010CFB0EF7B0EBF0
:1057D000074072EB17420CFB08F734BFA2EB0742FD
:1057E000B2EB074261EB174115EB1C154FEA813113
:1057F00041EA92414FEA823242EA90424FEA8030D7
:105800004FEA0C7644F1000448EA03434EEA0B48A1
:105810004FF0000EB2EB080C71EB030724BF624699
:1058200039464EEB0E0E4FF0000B00185241494125
:105830004BEB0B0BB2EB080C71EB03077BF1000B8E
:1058400024BF624639464EEB0E0E4FF0000B001897
:10585000524149414BEB0B0BB2EB080C71EB0307C8
:105860007BF1000B24BF624639464EEB0E0E51EA27
:10587000020718BF46F0010616EB0E7655F100023E
:1058800054F1000103D5BDE88901BDE80088BDE8F9
:105890008901BDE80048B619524141EB0101A3F16D
:1058A0000103704780807F7E7D7C7B7A7978777674
:1058B00076757473727171706F6E6E6D6C6C6B6AED
:1058C0006A6968686766666564646363626161608B
:1058D000605F5F5E5E5D5D5C5C5B5B5A5A59595808
:1058E0005857575656555555545453535252525172
:1058F000515050504F4F4F4E4E4D4D4D4C4C4C4BC8
:105900004B4B4A4A4A49494948484847474747460E
:10591000464645454544444444434343434242424A
:1059200042414141002B26D4770021D01CB54FEADB
:10593000370703B44FF010004FF010014FF0000094
:105940000FBCBDE810400BF1010BBBF1010F08BF0C
:105950005FEA170722BF12F1010211F101014FF0B6
:10596000004143F1000300F0004043EA00007047AB
:10597000F9D35708DAE746EA064613F1400F4FEA33
:1059800016461FDD13F1200FDFBF16430A46002124
:1059900020335B42C8D0C3F1200746EA064602FA2C
:1059A00007F74FEA164646EA0706C3F1200722FA30
:1059B00003F201FA07F721FA03F14FF0000342EA7C
:1059C0000702B1E746EA020646EA06464FEA1646ED
:1059D00046EA0106BCBF46EA0646360C4FF0000315
:1059E0004FF000024FF000019EE72DE9C0489346BA
:1059F00030B491E8380007C831EA400C48BF34EAB7
:105A0000430C03D5FFF7F2FDFFF78CFFF0BCBDE8B8
:105A100000882DE9C048934630B491E8380007C8A3
:105A200010F0804F08BF13F0804F03D100F005F84D
:105A3000FFF778FFF0BCBDE8008820F07F4780EAE0
:105A4000030023F07F4C07EB0C03A3F57C5300F01D
:105A50000040A3F1FE0392F0000F00F0B38095F038
:105A6000000F00F077802DE901494FEA11404FEA1D
:105A7000144621EA004800FB06FC24EA064708FB1E
:105A800006F607FB08F800FB07F718EB06484CEB97
:105A9000164C4FEA124B18EB07484FEA15464CEBF1
:105AA000174022EA0B4E0BFB06FC25EA06470EFBCD
:105AB00006F607FB0EFE0BFB07F71EEB064E4CEB44
:105AC000164C4FF000061EEB074E4CEB174B18EB35
:105AD0000B0840F1000018EB0E0B58EB000840F1EA
